:020000000E28C8
:10000800FE00030EF4000408F5000A08F6007F0855
:10001800F7001E280F2883136530FD000030FE000E
:10002800ED30FF00403084006421A021FD00FC0178
:1000380083019D290B1C212822286E2883128518EC
:10004800262827286E28F801F9010130F807031837
:10005800F90A0030F9077908803AFF00CE307F02AC
:10006800031D382820307802031C3B283C28292807
:100078007D03031D402841284728831285129821B3
:100088009321FD016D288312851621307C02031C03
:100098004E284F286A2824307C06031D54285528EA
:1000A800572804306F2128307C06031D5C285D2802
:1000B8005F2814306F212C307C06031D64286528C6
:1000C800672824306F21FD01FD0A6D287C087E21F8
:1000D80067280B100B1C71287228CF288312051A69
:1000E80076287728CF28FA01FB010130FA07031890
:1000F800FB0A0030FB077B08803AFF00CE307F0206
:10010800031D882820307A02031C8B288C28792824
:100118007D08031D90289128922850217D03031DF6
:1001280096289728CE2898217C08043EF200720869
:10013800FC0021307C020318A228A328B8287C08D8
:100148007E21B82804306F21CE2883121010143075
:100158006F21CE288312101024306F21CE289321CE
:10016800FC017C087E21CE287C08F200F30173088C
:10017800003A0319C028CE287208243A0319A62881
:100188000C3A0319A928043A0319AE281C3A031992
:10019800B328CE280B1083120C1CD328D428E228AD
:1001A8000310051D03140318DA28DD28831205152A
:1001B800DF28831205118D2183120C107708FF00A8
:1001C80076088A0075088400740E8300FE0E7E0E81
:1001D8000900F93402340C347D347C3402342C3474
:1001E8003E341E3402342C340F34C73400340C34FB
:1001F8006434633400340C343234093401340C343C
:100208000534133400340C340A34093400340C3403
:100218000534033400340C340234013483169F014E
:100228001E30850083120510851283168101123055
:10023800950012309600C8308B00831285168316FD
:100248000515F93092000C30831295007D3093002B
:100258008C010230920012158C1C33293429302964
:10026800831605110800F0007008403E84008313CF
:100278000008831692007008413E8400000883122B
:1002880092007008423E8400000895007008433EC2
:1002980084000008930008008312051585161A309B
:1002A800F100F830F000F00B5729F10B5729000046
:1002B80083120511851208007E088A007F088200D3
:1002C80060218000840A04087D0603190034FF0AAF
:1002D8000319FE0A6429F00083120C103C308F00C9
:1002E800AF308E00700890001C1283160C14831215
:1002F80010140800F10083160515710837218312C0
:100308008C0112158C1C89298A29862983160511C6
:1003180008003C3083128F00AF308E000800831233
:1003280010100C1005110800831295011211051107
:0A033800080012219E290E2801344E
:08400000FF3FFF3FFF3FFF3FC0
:02400E00C43CB0
:00000001FF
