:020000000E28C8
:10000800FE00030EF3000408F4000A08F5007F0858
:10001800F60020280F2883136430FD000030FE000E
:10002800BB30FF00403084000C212E21FB002F2123
:10003800FC00FD0183012B290B1C232824284F28B1
:1000480083128518282829284F28F701F80101303C
:10005800F7070318F80A0030F8077808803AFF0015
:10006800CE307F02031D3A2820307702031C3D283A
:100078003E282B287C03031D422843284828831246
:1000880085122621FC014E28831285167D0817212A
:10009800FC01FC0A0B100B1C522853288B288312D6
:1000A800051A572858288B28F901FA010130F90751
:1000B8000318FA0A0030FA077A08803AFF00CE30AF
:1000C8007F02031D692820307902031C6C286D28E3
:1000D8005A287C08031D712872287328F8207C038D
:1000E800031D772878288A2826217D08043EF200F7
:1000F8007208FD0021307D02031883288428872890
:100108007D0817218A28FD017D0817210B10760824
:10011800FF0075088A0074088400730E8300FE0EC1
:100128007E0E090083169F011E308500831205107C
:100138008512831681011230950012309600C8305E
:100148008B008312851683160515F93092000C3042
:10015800831295007D3093008C01023092001215B5
:100168008C1CB728B828B428831605110800F93460
:1001780002340C347D347C3402342C343E341E3446
:1001880002342C340F34C73400340C3464346334F0
:1001980000340C343234093401340C34053413344B
:1001A80000340C340A34093400340C340534033474
:1001B80000340C340234F0007008403E840083138D
:1001C8000008831692007008413E840000088312DC
:1001D80092007008423E8400000895007008433E73
:1001E80084000008930008008312051585161A304C
:1001F800F100F830F000F00BFF28F10BFF280000A9
:1002080083120511851208007E088A007F08820083
:1002180008218000840A04087D0603190034FF0AB7
:100228000319FE0A0C29F100831605157108DF2051
:1002380083128C0112158C1C222923291F2983164D
:100248000511080083129501121105110800962066
:080258002C290E2801340134A9
:08400000FF3FFF3FFF3FFF3FC0
:02400E00C43CB0
:00000001FF
